{
  "contractName": "RentalContract",
  "abi": [
    {
      "constant": true,
      "inputs": [],
      "name": "lateCharge",
      "outputs": [
        {
          "name": "",
          "type": "uint256"
        }
      ],
      "payable": false,
      "stateMutability": "view",
      "type": "function"
    },
    {
      "constant": true,
      "inputs": [],
      "name": "houseStatus",
      "outputs": [
        {
          "name": "",
          "type": "bool"
        }
      ],
      "payable": false,
      "stateMutability": "view",
      "type": "function"
    },
    {
      "constant": true,
      "inputs": [],
      "name": "rentedTime",
      "outputs": [
        {
          "name": "",
          "type": "uint256"
        }
      ],
      "payable": false,
      "stateMutability": "view",
      "type": "function"
    },
    {
      "constant": true,
      "inputs": [],
      "name": "price",
      "outputs": [
        {
          "name": "",
          "type": "uint32"
        }
      ],
      "payable": false,
      "stateMutability": "view",
      "type": "function"
    },
    {
      "constant": true,
      "inputs": [
        {
          "name": "",
          "type": "uint256"
        }
      ],
      "name": "customer",
      "outputs": [
        {
          "name": "",
          "type": "address"
        }
      ],
      "payable": false,
      "stateMutability": "view",
      "type": "function"
    },
    {
      "constant": true,
      "inputs": [],
      "name": "rentDays",
      "outputs": [
        {
          "name": "",
          "type": "uint256"
        }
      ],
      "payable": false,
      "stateMutability": "view",
      "type": "function"
    },
    {
      "anonymous": false,
      "inputs": [
        {
          "indexed": false,
          "name": "_msg",
          "type": "string"
        },
        {
          "indexed": false,
          "name": "user",
          "type": "address"
        },
        {
          "indexed": false,
          "name": "amount",
          "type": "uint256"
        },
        {
          "indexed": false,
          "name": "time",
          "type": "uint256"
        }
      ],
      "name": "RentalStatus",
      "type": "event"
    },
    {
      "constant": false,
      "inputs": [
        {
          "name": "_houseID",
          "type": "string"
        }
      ],
      "name": "newHouse",
      "outputs": [],
      "payable": false,
      "stateMutability": "nonpayable",
      "type": "function"
    },
    {
      "constant": true,
      "inputs": [],
      "name": "getAllApartments",
      "outputs": [
        {
          "components": [
            {
              "name": "owner",
              "type": "address"
            },
            {
              "name": "houseID",
              "type": "string"
            }
          ],
          "name": "",
          "type": "tuple[]"
        }
      ],
      "payable": false,
      "stateMutability": "view",
      "type": "function"
    },
    {
      "constant": false,
      "inputs": [
        {
          "name": "_days",
          "type": "uint256"
        }
      ],
      "name": "bookHouse",
      "outputs": [],
      "payable": true,
      "stateMutability": "payable",
      "type": "function"
    },
    {
      "constant": false,
      "inputs": [],
      "name": "returnHouse",
      "outputs": [],
      "payable": false,
      "stateMutability": "nonpayable",
      "type": "function"
    }
  ],
  "bytecode": "0x6060604052341561000f57600080fd5b610cbd8061001e6000396000f3006060604052600436106100a4576000357c0100000000000000000000000000000000000000000000000000000000900463ffffffff1680630397eee0146100a95780630f0ba116146100d25780636b39266f146100fb5780637a05fa9a146101245780638f6a9aee1461014657806390c20e391461015b578063a035b1fe14610184578063a22cd09f146101ad578063bd022c29146101e3578063d5d356f1146101fa575b600080fd5b34156100b457600080fd5b6100bc610223565b6040516100c99190610a50565b60405180910390f35b34156100dd57600080fd5b6100e5610380565b6040516100f29190610b21565b60405180910390f35b341561010657600080fd5b61010e610386565b60405161011b9190610a72565b60405180910390f35b341561012f57600080fd5b610144600461013f903690610840565b610399565b005b341561015157600080fd5b610159610457565b005b341561016657600080fd5b61016e6104bd565b60405161017b9190610b21565b60405180910390f35b341561018f57600080fd5b6101976104c3565b6040516101a49190610b3c565b60405180910390f35b34156101b857600080fd5b6101cd60046101c8903690610881565b6104d9565b6040516101da9190610a35565b60405180910390f35b6101f860046101f3903690610881565b610518565b005b341561020557600080fd5b61020d6105a3565b60405161021a9190610b21565b60405180910390f35b61022b61064d565b6000805480602002602001604051908101604052809291908181526020016000905b8282101561037757838290600052602060002090600202016040805190810160405290816000820160009054906101000a900473ffffffffffffffffffffffffffffffffffffffff1673ffffffffffffffffffffffffffffffffffffffff1673ffffffffffffffffffffffffffffffffffffffff168152602001600182018054600181600116156101000203166002900480601f01602080910402602001604051908101604052809291908181526020018280546001816001161561010002031660029004801561035f5780601f106103345761010080835404028352916020019161035f565b820191906000526020600020905b81548152906001019060200180831161034257829003601f168201915b5050505050815250508152602001906001019061024d565b50505050905090565b60055481565b600660009054906101000a900460ff1681565b600080548060010182816103ad9190610661565b9160005260206000209060020201600060408051908101604052803373ffffffffffffffffffffffffffffffffffffffff16815260200185815250909190915060008201518160000160006101000a81548173ffffffffffffffffffffffffffffffffffffffff021916908373ffffffffffffffffffffffffffffffffffffffff1602179055506020820151816001019080519060200190610450929190610693565b5050505050565b610460336105a9565b156104b657600454600354014211156104b1577f4a5b4afaba43242fb3a099e12b082e3083990750e53bb91b54b2ec6715d5adfa33600554426040516104a893929190610a8d565b60405180910390a15b6104bb565b600080fd5b565b60035481565b600260009054906101000a900463ffffffff1681565b6001818154811015156104e857fe5b90600052602060002090016000915054906101000a900473ffffffffffffffffffffffffffffffffffffffff1681565b80600260009054906101000a900463ffffffff1663ffffffff1602341480156105465750610545336105a9565b5b1561059b5742600381905550806004819055507f4a5b4afaba43242fb3a099e12b082e3083990750e53bb91b54b2ec6715d5adfa333460035460405161058e93929190610ad7565b60405180910390a16105a0565b600080fd5b50565b60045481565b600080600090505b600180549050811015610642573373ffffffffffffffffffffffffffffffffffffffff166001828154811015156105e457fe5b906000526020600020900160009054906101000a900473ffffffffffffffffffffffffffffffffffffffff1673ffffffffffffffffffffffffffffffffffffffff1614156106355760019150610647565b80806001019150506105b1565b600091505b50919050565b602060405190810160405280600081525090565b81548183558181151161068e5760020281600202836000526020600020918201910161068d9190610713565b5b505050565b828054600181600116156101000203166002900490600052602060002090601f016020900481019282601f106106d457805160ff1916838001178555610702565b82800160010185558215610702579182015b828111156107015782518255916020019190600101906106e6565b5b50905061070f9190610769565b5090565b61076691905b8082111561076257600080820160006101000a81549073ffffffffffffffffffffffffffffffffffffffff0219169055600182016000610759919061078e565b50600201610719565b5090565b90565b61078b91905b8082111561078757600081600090555060010161076f565b5090565b90565b50805460018160011615610100020316600290046000825580601f106107b457506107d3565b601f0160209004906000526020600020908101906107d29190610769565b5b50565b600082601f83011215156107e957600080fd5b81356107fc6107f782610b84565b610b57565b9150808252602083016020830185838301111561081857600080fd5b610823838284610c30565b50505092915050565b60006108388235610c26565b905092915050565b60006020828403121561085257600080fd5b600082013567ffffffffffffffff81111561086c57600080fd5b610878848285016107d6565b91505092915050565b60006020828403121561089357600080fd5b60006108a18482850161082c565b91505092915050565b6108b381610be0565b82525050565b60006108c482610bbd565b808452602084019350836020820285016108dd85610bb0565b60005b848110156109165783830388526108f88383516109da565b925061090382610bd3565b91506020880197506001810190506108e0565b508196508694505050505092915050565b61093081610c00565b82525050565b600061094182610bc8565b808452610955816020860160208601610c3f565b61095e81610c72565b602085010191505092915050565b6000600b82527f52657475726e206c6174650000000000000000000000000000000000000000006020830152604082019050919050565b6000600682527f52656e74656400000000000000000000000000000000000000000000000000006020830152604082019050919050565b60006040830160008301516109f260008601826108aa565b5060208301518482036020860152610a0a8282610936565b9150508091505092915050565b610a2081610c0c565b82525050565b610a2f81610c16565b82525050565b6000602082019050610a4a60008301846108aa565b92915050565b60006020820190508181036000830152610a6a81846108b9565b905092915050565b6000602082019050610a876000830184610927565b92915050565b60006080820190508181036000830152610aa68161096c565b9050610ab560208301866108aa565b610ac26040830185610a17565b610acf6060830184610a17565b949350505050565b60006080820190508181036000830152610af0816109a3565b9050610aff60208301866108aa565b610b0c6040830185610a17565b610b196060830184610a17565b949350505050565b6000602082019050610b366000830184610a17565b92915050565b6000602082019050610b516000830184610a26565b92915050565b6000604051905081810181811067ffffffffffffffff82111715610b7a57600080fd5b8060405250919050565b600067ffffffffffffffff821115610b9b57600080fd5b601f19601f8301169050602081019050919050565b6000602082019050919050565b600081519050919050565b600081519050919050565b6000602082019050919050565b600073ffffffffffffffffffffffffffffffffffffffff82169050919050565b60008115159050919050565b6000819050919050565b600063ffffffff82169050919050565b6000819050919050565b82818337600083830152505050565b60005b83811015610c5d578082015181840152602081019050610c42565b83811115610c6c576000848401525b50505050565b6000601f19601f83011690509190505600a265627a7a72305820b80a2b3c8d4e8a43adb63347b3373e6e163be5a65a6d627971d15deff3a658b36c6578706572696d656e74616cf50037",
  "source": "pragma solidity ^0.4.17;\npragma experimental ABIEncoderV2;\n\ncontract RentalContract {\n\n   struct house{\n      address owner;\n      string houseID;\n   }\n\n   house[] houses;\n   address[] public customer;\n   uint32 public price;\n   uint256 public rentedTime;\n   uint256 public rentDays;\n   uint256 public lateCharge;\n   bool public houseStatus;\n\n   mapping(address => string)apartmentContracts;\n\n   event RentalStatus(string _msg, address user, uint amount, uint256 time);\n\n   modifier onlyCustomer() {\n      if(isCustomer(msg.sender)) {\n         _;\n      } else revert();\n   }\n\n   function newHouse(string _houseID) public {\n      houses.push(house(msg.sender, _houseID));\n   }\n\n   function getAllApartments() public view returns(house[]) {\n      return houses;\n   }\n\n   function isCustomer(address _Customer) private returns(bool) {\n      for (uint i=0; i<customer.length; i++) {\n         if(customer[i] == msg.sender) {\n           return true; \n         } \n      }\n      return false;\n   }\n\n   function bookHouse(uint256 _days) public payable{\n      if((msg.value == (price * _days)) && isCustomer(msg.sender)) {\n         rentedTime = block.timestamp;\n         rentDays = _days;\n         emit RentalStatus(\"Rented\", msg.sender, msg.value, rentedTime);\n      } else {\n         revert();\n      } \n   }\n\n   function returnHouse() public onlyCustomer {\n      if(block.timestamp > (rentedTime + rentDays)) {\n         emit RentalStatus(\"Return late\", msg.sender, lateCharge, block.timestamp);\n      }\n   }\n}\n",
  "sourcePath": "/media/kenCode/kenkeJ/Source_17_4_17/kins/Rental/rent-final/Apartment-Rental-System/client/smartcontract/contracts/ApartmentContract.sol",
  "compiler": {
    "name": "solc",
    "version": "0.4.21+commit.dfe3193c.Emscripten.clang"
  },
  "schemaVersion": "2.0.0",
  "updatedAt": "2018-04-09T09:30:14.421Z"
}