{
  "contractName": "ApartmentContract",
  "abi": [
    {
      "constant": true,
      "inputs": [],
      "name": "customer",
      "outputs": [
        {
          "name": "",
          "type": "address"
        }
      ],
      "payable": false,
      "stateMutability": "view",
      "type": "function"
    },
    {
      "constant": true,
      "inputs": [],
      "name": "owner",
      "outputs": [
        {
          "name": "",
          "type": "address"
        }
      ],
      "payable": false,
      "stateMutability": "view",
      "type": "function"
    },
    {
      "constant": true,
      "inputs": [],
      "name": "rentedTime",
      "outputs": [
        {
          "name": "",
          "type": "uint256"
        }
      ],
      "payable": false,
      "stateMutability": "view",
      "type": "function"
    },
    {
      "constant": true,
      "inputs": [],
      "name": "price",
      "outputs": [
        {
          "name": "",
          "type": "uint256"
        }
      ],
      "payable": false,
      "stateMutability": "view",
      "type": "function"
    },
    {
      "constant": true,
      "inputs": [],
      "name": "rentDays",
      "outputs": [
        {
          "name": "",
          "type": "uint256"
        }
      ],
      "payable": false,
      "stateMutability": "view",
      "type": "function"
    },
    {
      "inputs": [
        {
          "name": "_price",
          "type": "uint32"
        }
      ],
      "payable": false,
      "stateMutability": "nonpayable",
      "type": "constructor"
    },
    {
      "anonymous": false,
      "inputs": [
        {
          "indexed": false,
          "name": "_msg",
          "type": "string"
        }
      ],
      "name": "RentalStatus",
      "type": "event"
    },
    {
      "constant": false,
      "inputs": [],
      "name": "getCustomerValue",
      "outputs": [
        {
          "name": "",
          "type": "uint256"
        }
      ],
      "payable": false,
      "stateMutability": "nonpayable",
      "type": "function"
    },
    {
      "constant": false,
      "inputs": [],
      "name": "changeStatus",
      "outputs": [],
      "payable": false,
      "stateMutability": "nonpayable",
      "type": "function"
    },
    {
      "constant": false,
      "inputs": [
        {
          "name": "_days",
          "type": "uint256"
        }
      ],
      "name": "bookHouse",
      "outputs": [],
      "payable": true,
      "stateMutability": "payable",
      "type": "function"
    },
    {
      "constant": false,
      "inputs": [],
      "name": "returnHouse",
      "outputs": [],
      "payable": false,
      "stateMutability": "nonpayable",
      "type": "function"
    }
  ],
  "bytecode": "0x6060604052341561000f57600080fd5b60405160208061077083398101604052610032906780000000000000009061009a565b8063ffffffff1660028190555033600160006101000a81548173ffffffffffffffffffffffffffffffffffffffff021916908373ffffffffffffffffffffffffffffffffffffffff160217905550506100d3565b600061009282516100c3565b905092915050565b6000602082840312156100ac57600080fd5b60006100ba84828501610086565b91505092915050565b600063ffffffff82169050919050565b61068e806100e26000396000f300606060405260043610610099576000357c0100000000000000000000000000000000000000000000000000000000900463ffffffff168063085634ec1461009e5780632804b2c0146100b35780638da5cb5b146100dc5780638f6a9aee1461010557806390c20e391461011a5780639e42328114610143578063a035b1fe1461016c578063bd022c2914610195578063d5d356f1146101ac575b600080fd5b34156100a957600080fd5b6100b16101d5565b005b34156100be57600080fd5b6100c661020c565b6040516100d3919061056a565b60405180910390f35b34156100e757600080fd5b6100ef610231565b6040516100fc919061056a565b60405180910390f35b341561011057600080fd5b610118610257565b005b341561012557600080fd5b61012d610352565b60405161013a9190610605565b60405180910390f35b341561014e57600080fd5b610156610358565b6040516101639190610605565b60405180910390f35b341561017757600080fd5b61017f610362565b60405161018c9190610605565b60405180910390f35b6101aa60046101a5903690610447565b610368565b005b34156101b757600080fd5b6101bf610423565b6040516101cc9190610605565b60405180910390f35b7f17f7e7818d10c49c163a1f0e2a4a41fe124d15ad50c3683209d96fa2d94021ee604051610202906105e5565b60405180910390a1565b6000809054906101000a900473ffffffffffffffffffffffffffffffffffffffff1681565b600160009054906101000a900473ffffffffffffffffffffffffffffffffffffffff1681565b60008060009054906101000a900473ffffffffffffffffffffffffffffffffffffffff1673ffffffffffffffffffffffffffffffffffffffff163373ffffffffffffffffffffffffffffffffffffffff16141561034a576004546003540142111561030f57620151806004546003540142038115156102d257fe5b0490507f17f7e7818d10c49c163a1f0e2a4a41fe124d15ad50c3683209d96fa2d94021ee604051610302906105a5565b60405180910390a1610345565b7f17f7e7818d10c49c163a1f0e2a4a41fe124d15ad50c3683209d96fa2d94021ee60405161033c90610585565b60405180910390a15b61034f565b600080fd5b50565b60035481565b6000600554905090565b60025481565b61037134610429565b6002805481151561037e57fe5b046002548202013a3403111561041b5762015180810260048190555042600381905550336000806101000a81548173ffffffffffffffffffffffffffffffffffffffff021916908373ffffffffffffffffffffffffffffffffffffffff1602179055507f17f7e7818d10c49c163a1f0e2a4a41fe124d15ad50c3683209d96fa2d94021ee60405161040e906105c5565b60405180910390a1610420565b600080fd5b50565b60045481565b8060058190555050565b600061043f823561064a565b905092915050565b60006020828403121561045957600080fd5b600061046784828501610433565b91505092915050565b61047981610620565b82525050565b6000600e82527f52657475726e206f6e2074696d650000000000000000000000000000000000006020830152604082019050919050565b6000600b82527f52657475726e206c6174650000000000000000000000000000000000000000006020830152604082019050919050565b6000600682527f52656e74656400000000000000000000000000000000000000000000000000006020830152604082019050919050565b6000600482527f68616861000000000000000000000000000000000000000000000000000000006020830152604082019050919050565b61056481610640565b82525050565b600060208201905061057f6000830184610470565b92915050565b6000602082019050818103600083015261059e8161047f565b9050919050565b600060208201905081810360008301526105be816104b6565b9050919050565b600060208201905081810360008301526105de816104ed565b9050919050565b600060208201905081810360008301526105fe81610524565b9050919050565b600060208201905061061a600083018461055b565b92915050565b600073ffffffffffffffffffffffffffffffffffffffff82169050919050565b6000819050919050565b60008190509190505600a265627a7a72305820381f2706265105ec4be573d647e4227b71ee027e3a64971d0cb47ab7424917c36c6578706572696d656e74616cf50037",
  "source": "pragma solidity ^0.4.17;\npragma experimental ABIEncoderV2;\n\ncontract ApartmentContract {\n\n   address public customer;\n   address public owner;\n   uint256 public price;\n   uint256 public rentedTime;\n   uint256 public rentDays;\n   uint256 private customerValue;\n   \n   event RentalStatus(string _msg);\n\n   function ApartmentContract(uint32 _price) public{\n      price = _price;\n      owner = msg.sender;\n   }\n   \n   function setCustomerValue(uint256 _value) private{\n       customerValue = _value;\n   }\n\n    function getCustomerValue() public returns(uint256) {\n        return customerValue;\n    }\n    \n   modifier onlyCustomer() {\n      if(msg.sender == customer) {\n         _;\n      } else revert();\n   }\n\n   function changeStatus() public {\n       emit RentalStatus(\"haha\");\n   }\n\n   function bookHouse(uint256 _days) public payable{\n       setCustomerValue(msg.value);\n        if ((msg.value - tx.gasprice)  > (_days * price) + (price/2)){\n         rentDays = _days * 1 days;\n         rentedTime = now;\n         customer = msg.sender;\n         emit RentalStatus(\"Rented\");\n        }\n        else {\n         revert();\n      } \n   }\n\n   function returnHouse() public onlyCustomer {\n      if(now > rentedTime + rentDays) {\n          uint256 latetime = (now - (rentedTime + rentDays)) / 1 days;\n          emit RentalStatus(\"Return late\");\n      } else {\n         emit RentalStatus(\"Return on time\");\n      }\n   }\n}",
  "sourcePath": "/media/trung/DATA/Kins/Blockchain/Apartment-Rental-System/client/src/smartcontract/contracts/ApartmentContract.sol",
  "compiler": {
    "name": "solc",
    "version": "0.4.21+commit.dfe3193c.Emscripten.clang"
  },
  "schemaVersion": "2.0.0",
  "updatedAt": "2018-04-11T09:42:03.534Z"
}