{
  "contractName": "ApartmentContract",
  "abi": [
    {
      "constant": true,
      "inputs": [],
      "name": "customer",
      "outputs": [
        {
          "name": "",
          "type": "address"
        }
      ],
      "payable": false,
      "stateMutability": "view",
      "type": "function"
    },
    {
      "constant": true,
      "inputs": [
        {
          "name": "",
          "type": "address"
        }
      ],
      "name": "balanceOf",
      "outputs": [
        {
          "name": "",
          "type": "uint256"
        }
      ],
      "payable": false,
      "stateMutability": "view",
      "type": "function"
    },
    {
      "constant": true,
      "inputs": [],
      "name": "owner",
      "outputs": [
        {
          "name": "",
          "type": "address"
        }
      ],
      "payable": false,
      "stateMutability": "view",
      "type": "function"
    },
    {
      "constant": true,
      "inputs": [],
      "name": "rentedTime",
      "outputs": [
        {
          "name": "",
          "type": "uint256"
        }
      ],
      "payable": false,
      "stateMutability": "view",
      "type": "function"
    },
    {
      "constant": true,
      "inputs": [],
      "name": "price",
      "outputs": [
        {
          "name": "",
          "type": "uint256"
        }
      ],
      "payable": false,
      "stateMutability": "view",
      "type": "function"
    },
    {
      "constant": true,
      "inputs": [],
      "name": "valid",
      "outputs": [
        {
          "name": "",
          "type": "bool"
        }
      ],
      "payable": false,
      "stateMutability": "view",
      "type": "function"
    },
    {
      "constant": true,
      "inputs": [],
      "name": "rentDays",
      "outputs": [
        {
          "name": "",
          "type": "uint32"
        }
      ],
      "payable": false,
      "stateMutability": "view",
      "type": "function"
    },
    {
      "constant": true,
      "inputs": [],
      "name": "main",
      "outputs": [
        {
          "name": "",
          "type": "address"
        }
      ],
      "payable": false,
      "stateMutability": "view",
      "type": "function"
    },
    {
      "inputs": [
        {
          "name": "_price",
          "type": "uint32"
        }
      ],
      "payable": false,
      "stateMutability": "nonpayable",
      "type": "constructor"
    },
    {
      "anonymous": false,
      "inputs": [
        {
          "indexed": false,
          "name": "_msg",
          "type": "string"
        }
      ],
      "name": "RentalStatus",
      "type": "event"
    },
    {
      "anonymous": false,
      "inputs": [
        {
          "indexed": false,
          "name": "_msg",
          "type": "string"
        },
        {
          "indexed": false,
          "name": "_value",
          "type": "uint256"
        }
      ],
      "name": "TransferValue",
      "type": "event"
    },
    {
      "constant": false,
      "inputs": [
        {
          "name": "_days",
          "type": "uint32"
        }
      ],
      "name": "bookHouse",
      "outputs": [],
      "payable": true,
      "stateMutability": "payable",
      "type": "function"
    },
    {
      "constant": false,
      "inputs": [],
      "name": "returnHouse",
      "outputs": [],
      "payable": false,
      "stateMutability": "nonpayable",
      "type": "function"
    }
  ],
  "bytecode": "0x6060604052341561000f57600080fd5b6040516020806109cb833981016040528080519060200190919050508063ffffffff1660038190555033600260006101000a81548173ffffffffffffffffffffffffffffffffffffffff021916908373ffffffffffffffffffffffffffffffffffffffff160217905550306000806101000a81548173ffffffffffffffffffffffffffffffffffffffff021916908373ffffffffffffffffffffffffffffffffffffffff1602179055506001600560046101000a81548160ff021916908315150217905550506108e7806100e46000396000f3006060604052600436106100a4576000357c0100000000000000000000000000000000000000000000000000000000900463ffffffff1680632804b2c0146100a957806370a08231146100fe5780638da5cb5b1461014b5780638f6a9aee146101a057806390c20e39146101b5578063a035b1fe146101de578063c199121914610207578063d5d356f114610234578063dad5dd1614610269578063dffeadd014610287575b600080fd5b34156100b457600080fd5b6100bc6102dc565b604051808273ffffffffffffffffffffffffffffffffffffffff1673ffffffffffffffffffffffffffffffffffffffff16815260200191505060405180910390f35b341561010957600080fd5b610135600480803573ffffffffffffffffffffffffffffffffffffffff16906020019091905050610302565b6040518082815260200191505060405180910390f35b341561015657600080fd5b61015e61031a565b604051808273ffffffffffffffffffffffffffffffffffffffff1673ffffffffffffffffffffffffffffffffffffffff16815260200191505060405180910390f35b34156101ab57600080fd5b6101b3610340565b005b34156101c057600080fd5b6101c8610529565b6040518082815260200191505060405180910390f35b34156101e957600080fd5b6101f161052f565b6040518082815260200191505060405180910390f35b341561021257600080fd5b61021a610535565b604051808215151515815260200191505060405180910390f35b341561023f57600080fd5b610247610548565b604051808263ffffffff1663ffffffff16815260200191505060405180910390f35b610285600480803563ffffffff1690602001909190505061055e565b005b341561029257600080fd5b61029a61070d565b604051808273ffffffffffffffffffffffffffffffffffffffff1673ffffffffffffffffffffffffffffffffffffffff16815260200191505060405180910390f35b600160009054906101000a900473ffffffffffffffffffffffffffffffffffffffff1681565b60066020528060005260406000206000915090505481565b600260009054906101000a900473ffffffffffffffffffffffffffffffffffffffff1681565b600080600160009054906101000a900473ffffffffffffffffffffffffffffffffffffffff1673ffffffffffffffffffffffffffffffffffffffff163373ffffffffffffffffffffffffffffffffffffffff1614151561039f57600080fd5b600560009054906101000a900463ffffffff1663ffffffff1660035402915062015180600560009054906101000a900463ffffffff160263ffffffff16600454014211156104ab57600560009054906101000a900463ffffffff1663ffffffff166201518060045481151561041057fe5b0401620151804281151561042057fe5b0403905060035481028201915061043682610732565b7ff3783f08961dd6c428fbb022380cdd8e4a0dd2e33c8fe70607bb95c38e3b19bc8260405180806020018381526020018281038252600b8152602001807f52657475726e206c6174650000000000000000000000000000000000000000008152506020019250505060405180910390a1610525565b6104b482610732565b7ff3783f08961dd6c428fbb022380cdd8e4a0dd2e33c8fe70607bb95c38e3b19bc8260405180806020018381526020018281038252600e8152602001807f52657475726e206f6e2074696d650000000000000000000000000000000000008152506020019250505060405180910390a15b5050565b60045481565b60035481565b600560049054906101000a900460ff1681565b600560009054906101000a900463ffffffff1681565b6000600260009054906101000a900473ffffffffffffffffffffffffffffffffffffffff1673ffffffffffffffffffffffffffffffffffffffff163373ffffffffffffffffffffffffffffffffffffffff16141515156105bd57600080fd5b670de0b6b3a7640000348115156105d057fe5b04905080600660008060009054906101000a900473ffffffffffffffffffffffffffffffffffffffff1673ffffffffffffffffffffffffffffffffffffffff1673ffffffffffffffffffffffffffffffffffffffff1681526020019081526020016000208190555081600560006101000a81548163ffffffff021916908363ffffffff1602179055504260048190555033600160006101000a81548173ffffffffffffffffffffffffffffffffffffffff021916908373ffffffffffffffffffffffffffffffffffffffff1602179055507f17f7e7818d10c49c163a1f0e2a4a41fe124d15ad50c3683209d96fa2d94021ee6040518080602001828103825260068152602001807f52656e746564000000000000000000000000000000000000000000000000000081525060200191505060405180910390a15050565b6000809054906101000a900473ffffffffffffffffffffffffffffffffffffffff1681565b60011515600560049054906101000a900460ff16151514151561075457600080fd5b80600660008060009054906101000a900473ffffffffffffffffffffffffffffffffffffffff1673ffffffffffffffffffffffffffffffffffffffff1673ffffffffffffffffffffffffffffffffffffffff168152602001908152602001600020600082825403925050819055508060066000600260009054906101000a900473ffffffffffffffffffffffffffffffffffffffff1673ffffffffffffffffffffffffffffffffffffffff1673ffffffffffffffffffffffffffffffffffffffff16815260200190815260200160002060008282540192505081905550600260009054906101000a900473ffffffffffffffffffffffffffffffffffffffff1673ffffffffffffffffffffffffffffffffffffffff166108fc670de0b6b3a764000083029081150290604051600060405180830381858888f19350505050151561089d57600080fd5b6000600560046101000a81548160ff021916908315150217905550505600a165627a7a72305820494484d5d5f0da9d4e25080d7aa5753f5537eca5f1f61f79ef6f39f9f8d76a6b0029",
  "source": "pragma solidity ^0.4.17;\n\ncontract ApartmentContract {\n\n   address public main;\n   address public customer;\n   address public owner;\n   uint256 public price;\n   uint256 public rentedTime;\n   uint32 public rentDays;\n   bool public valid;\n   \n   mapping (address => uint256) public balanceOf;\n\n   event RentalStatus(string _msg);\n   event TransferValue(string _msg, uint256 _value);\n  \n   function ApartmentContract(uint32 _price) public{\n      price = _price;\n      owner = msg.sender;\n      main = this;\n      valid = true;\n    }\n    \n   modifier onlyCustomer() {\n       require(msg.sender == customer);\n       _;\n    }\n\n    modifier onlyOwner() {\n       require(msg.sender == owner);\n       _;\n    }\n\n         \n    function bookHouse(uint32 _days) public payable{    \n      require(msg.sender != owner);\n      uint256 amountInEther = msg.value / 1 ether; //convert to ether        \n      balanceOf[main] = amountInEther;\n      rentDays = _days;\n      rentedTime = now;\n      customer = msg.sender;\n      emit RentalStatus(\"Rented\");    \n   }\n\n   function returnHouse() public onlyCustomer {       \n     uint256 rentalFee = price * rentDays;\n     if(now > rentedTime + rentDays * 1 days) {\n        uint256 latetime = now / 1 days - (rentedTime / 1 days + rentDays);\n        rentalFee += latetime * price;\n        withdraw(rentalFee);\n        emit TransferValue(\"Return late\", rentalFee);\n      } else {\n         withdraw(rentalFee);\n         emit TransferValue(\"Return on time\", rentalFee);\n      }\n   }\n\n   function withdraw(uint256 rentalFee) private {    \n       require(valid == true);\n        balanceOf[main] -= rentalFee;\n        balanceOf[owner] += rentalFee;\n        owner.transfer(rentalFee * 1 ether); // convert to wei\n        valid = false;\n   }\n\n}",
  "sourcePath": "/media/trung/DATA/Kins/Blockchain/Apartment-Rental-System/client/src/smartcontract/contracts/ApartmentContract.sol",
  "compiler": {
    "name": "solc",
    "version": "0.4.21+commit.dfe3193c.Emscripten.clang"
  },
  "schemaVersion": "2.0.0",
  "updatedAt": "2018-04-13T03:15:17.815Z"
}