{
  "contractName": "ApartmentContract",
  "abi": [
    {
      "constant": true,
      "inputs": [],
      "name": "customer",
      "outputs": [
        {
          "name": "",
          "type": "address"
        }
      ],
      "payable": false,
      "stateMutability": "view",
      "type": "function"
    },
    {
      "constant": true,
      "inputs": [
        {
          "name": "",
          "type": "address"
        }
      ],
      "name": "balanceOf",
      "outputs": [
        {
          "name": "",
          "type": "uint256"
        }
      ],
      "payable": false,
      "stateMutability": "view",
      "type": "function"
    },
    {
      "constant": true,
      "inputs": [],
      "name": "owner",
      "outputs": [
        {
          "name": "",
          "type": "address"
        }
      ],
      "payable": false,
      "stateMutability": "view",
      "type": "function"
    },
    {
      "constant": true,
      "inputs": [],
      "name": "rentedTime",
      "outputs": [
        {
          "name": "",
          "type": "uint256"
        }
      ],
      "payable": false,
      "stateMutability": "view",
      "type": "function"
    },
    {
      "constant": true,
      "inputs": [],
      "name": "price",
      "outputs": [
        {
          "name": "",
          "type": "uint256"
        }
      ],
      "payable": false,
      "stateMutability": "view",
      "type": "function"
    },
    {
      "constant": true,
      "inputs": [],
      "name": "rentDays",
      "outputs": [
        {
          "name": "",
          "type": "uint32"
        }
      ],
      "payable": false,
      "stateMutability": "view",
      "type": "function"
    },
    {
      "constant": true,
      "inputs": [],
      "name": "main",
      "outputs": [
        {
          "name": "",
          "type": "address"
        }
      ],
      "payable": false,
      "stateMutability": "view",
      "type": "function"
    },
    {
      "inputs": [
        {
          "name": "_price",
          "type": "uint32"
        }
      ],
      "payable": false,
      "stateMutability": "nonpayable",
      "type": "constructor"
    },
    {
      "anonymous": false,
      "inputs": [
        {
          "indexed": false,
          "name": "_msg",
          "type": "string"
        }
      ],
      "name": "RentalStatus",
      "type": "event"
    },
    {
      "anonymous": false,
      "inputs": [
        {
          "indexed": false,
          "name": "_msg",
          "type": "string"
        },
        {
          "indexed": false,
          "name": "_value",
          "type": "uint256"
        }
      ],
      "name": "TransferValue",
      "type": "event"
    },
    {
      "constant": false,
      "inputs": [],
      "name": "setlastWithdrawTime",
      "outputs": [],
      "payable": false,
      "stateMutability": "nonpayable",
      "type": "function"
    },
    {
      "constant": false,
      "inputs": [],
      "name": "getlastWithdrawTime",
      "outputs": [
        {
          "name": "",
          "type": "uint256"
        }
      ],
      "payable": false,
      "stateMutability": "nonpayable",
      "type": "function"
    },
    {
      "constant": false,
      "inputs": [
        {
          "name": "_days",
          "type": "uint32"
        }
      ],
      "name": "bookHouse",
      "outputs": [],
      "payable": true,
      "stateMutability": "payable",
      "type": "function"
    },
    {
      "constant": false,
      "inputs": [],
      "name": "returnHouse",
      "outputs": [],
      "payable": false,
      "stateMutability": "nonpayable",
      "type": "function"
    },
    {
      "constant": false,
      "inputs": [
        {
          "name": "rentalFee",
          "type": "uint256"
        }
      ],
      "name": "withdraw",
      "outputs": [],
      "payable": false,
      "stateMutability": "nonpayable",
      "type": "function"
    }
  ],
  "bytecode": "0x6060604052341561000f57600080fd5b604051602080610b658339810160405261003290678000000000000000906100da565b8063ffffffff1660038190555033600260006101000a81548173ffffffffffffffffffffffffffffffffffffffff021916908373ffffffffffffffffffffffffffffffffffffffff160217905550306000806101000a81548173ffffffffffffffffffffffffffffffffffffffff021916908373ffffffffffffffffffffffffffffffffffffffff16021790555050610113565b60006100d28251610103565b905092915050565b6000602082840312156100ec57600080fd5b60006100fa848285016100c6565b91505092915050565b600063ffffffff82169050919050565b610a43806101226000396000f3006060604052600436106100ba576000357c0100000000000000000000000000000000000000000000000000000000900463ffffffff1680632804b2c0146100bf5780632e1a7d4d146100e85780636ce9399d1461010a57806370a08231146101335780638da5cb5b146101695780638f6a9aee1461019257806390c20e39146101a7578063a035b1fe146101d0578063b4a5da0e146101f9578063d5d356f11461020e578063dad5dd1614610237578063dffeadd01461024e575b600080fd5b34156100ca57600080fd5b6100d2610277565b6040516100df91906108c8565b60405180910390f35b34156100f357600080fd5b61010860046101039036906107a4565b61029d565b005b341561011557600080fd5b61011d6103e9565b60405161012a919061095f565b60405180910390f35b341561013e57600080fd5b610153600461014e90369061077b565b6103f3565b604051610160919061095f565b60405180910390f35b341561017457600080fd5b61017c61040b565b60405161018991906108c8565b60405180910390f35b341561019d57600080fd5b6101a5610431565b005b34156101b257600080fd5b6101ba6105a8565b6040516101c7919061095f565b60405180910390f35b34156101db57600080fd5b6101e36105ae565b6040516101f0919061095f565b60405180910390f35b341561020457600080fd5b61020c6105b4565b005b341561021957600080fd5b6102216105bd565b60405161022e919061097a565b60405180910390f35b61024c60046102479036906107cd565b6105d3565b005b341561025957600080fd5b61026161071a565b60405161026e91906108c8565b60405180910390f35b600160009054906101000a900473ffffffffffffffffffffffffffffffffffffffff1681565b80600760008060009054906101000a900473ffffffffffffffffffffffffffffffffffffffff1673ffffffffffffffffffffffffffffffffffffffff1673ffffffffffffffffffffffffffffffffffffffff168152602001908152602001600020600082825403925050819055508060076000600260009054906101000a900473ffffffffffffffffffffffffffffffffffffffff1673ffffffffffffffffffffffffffffffffffffffff1673ffffffffffffffffffffffffffffffffffffffff16815260200190815260200160002060008282540192505081905550600260009054906101000a900473ffffffffffffffffffffffffffffffffffffffff1673ffffffffffffffffffffffffffffffffffffffff166108fc670de0b6b3a764000083029081150290604051600060405180830381858888f1935050505015156103e657600080fd5b50565b6000600654905090565b60076020528060005260406000206000915090505481565b600260009054906101000a900473ffffffffffffffffffffffffffffffffffffffff1681565b600080600160009054906101000a900473ffffffffffffffffffffffffffffffffffffffff1673ffffffffffffffffffffffffffffffffffffffff163373ffffffffffffffffffffffffffffffffffffffff1614151561049057600080fd5b600560009054906101000a900463ffffffff1663ffffffff1660035402915062015180600560009054906101000a900463ffffffff160263ffffffff166004540142111561056357600560009054906101000a900463ffffffff1663ffffffff166201518060045481151561050157fe5b0401620151804281151561051157fe5b040390506003548102820191506105278261029d565b7ff3783f08961dd6c428fbb022380cdd8e4a0dd2e33c8fe70607bb95c38e3b19bc826040516105569190610911565b60405180910390a16105a4565b61056c8261029d565b7ff3783f08961dd6c428fbb022380cdd8e4a0dd2e33c8fe70607bb95c38e3b19bc8260405161059b91906108e3565b60405180910390a15b5050565b60045481565b60035481565b42600681905550565b600560009054906101000a900463ffffffff1681565b6000670de0b6b3a7640000348115156105e857fe5b04905060026003548115156105f957fe5b046003548363ffffffff1602018114151561061357600080fd5b80600760008060009054906101000a900473ffffffffffffffffffffffffffffffffffffffff1673ffffffffffffffffffffffffffffffffffffffff1673ffffffffffffffffffffffffffffffffffffffff1681526020019081526020016000208190555081600560006101000a81548163ffffffff021916908363ffffffff1602179055504260048190555033600160006101000a81548173ffffffffffffffffffffffffffffffffffffffff021916908373ffffffffffffffffffffffffffffffffffffffff1602179055507f17f7e7818d10c49c163a1f0e2a4a41fe124d15ad50c3683209d96fa2d94021ee60405161070e9061093f565b60405180910390a15050565b6000809054906101000a900473ffffffffffffffffffffffffffffffffffffffff1681565b600061074b82356109cf565b905092915050565b600061075f82356109ef565b905092915050565b600061077382356109f9565b905092915050565b60006020828403121561078d57600080fd5b600061079b8482850161073f565b91505092915050565b6000602082840312156107b657600080fd5b60006107c484828501610753565b91505092915050565b6000602082840312156107df57600080fd5b60006107ed84828501610767565b91505092915050565b6107ff81610995565b82525050565b6000600e82527f52657475726e206f6e2074696d650000000000000000000000000000000000006020830152604082019050919050565b6000600b82527f52657475726e206c6174650000000000000000000000000000000000000000006020830152604082019050919050565b6000600682527f52656e74656400000000000000000000000000000000000000000000000000006020830152604082019050919050565b6108b3816109b5565b82525050565b6108c2816109bf565b82525050565b60006020820190506108dd60008301846107f6565b92915050565b600060408201905081810360008301526108fc81610805565b905061090b60208301846108aa565b92915050565b6000604082019050818103600083015261092a8161083c565b905061093960208301846108aa565b92915050565b6000602082019050818103600083015261095881610873565b9050919050565b600060208201905061097460008301846108aa565b92915050565b600060208201905061098f60008301846108b9565b92915050565b600073ffffffffffffffffffffffffffffffffffffffff82169050919050565b6000819050919050565b600063ffffffff82169050919050565b600073ffffffffffffffffffffffffffffffffffffffff82169050919050565b6000819050919050565b600063ffffffff821690509190505600a265627a7a72305820fd5a49efb07435fc243288c71ac94f45bbd9a4effda1d4004f69534e8550153f6c6578706572696d656e74616cf50037",
  "source": "pragma solidity ^0.4.17;\npragma experimental ABIEncoderV2;\n\ncontract ApartmentContract {\n\n   address public main;\n   address public customer;\n   address public owner;\n   uint256 public price;\n   uint256 public rentedTime;\n   uint32 public rentDays;\n   uint256 private lastWithdrawTime;\n   \n   mapping (address => uint256) public balanceOf;\n\n   event RentalStatus(string _msg);\n   event TransferValue(string _msg, uint256 _value);\n  \n   function ApartmentContract(uint32 _price) public{\n      price = _price;\n      owner = msg.sender;\n      main = this;\n    }\n   \n      function setlastWithdrawTime() public {\n        lastWithdrawTime = now;\n    }\n\n     function getlastWithdrawTime() public returns(uint256){\n       return lastWithdrawTime;\n   }\n    \n   modifier onlyCustomer() {\n       require(msg.sender == customer);\n       _;\n   }\n\n    modifier onlyOwner() {\n       require(msg.sender == owner);\n       _;\n      }\n      \n    function bookHouse(uint32 _days) public payable{\n    uint256 amountInEther = msg.value / 1 ether; //convert to ether    \n    require (amountInEther  == (_days * price) + (price/2));\n    balanceOf[main] = amountInEther;\n    rentDays = _days;\n    rentedTime = now;\n    customer = msg.sender;\n    emit RentalStatus(\"Rented\");\n    \n   }\n\n   function returnHouse() public onlyCustomer {\n       \n     uint256 rentalFee = price * rentDays;\n\n     if(now > rentedTime + rentDays * 1 days) {\n          uint256 latetime = now / 1 days - (rentedTime / 1 days + rentDays);\n          rentalFee += latetime * price;\n\n          withdraw(rentalFee);\n          emit TransferValue(\"Return late\", rentalFee);\n      } else {\n         withdraw(rentalFee);\n         emit TransferValue(\"Return on time\", rentalFee);\n        //  emit TransferValue(\"Return on time\", value);\n      }\n   }\n\n   function withdraw(uint256 rentalFee) public {\n        // require(now > getlastWithdrawTime() + 30 days);\n              \n        balanceOf[main] -= rentalFee;\n        balanceOf[owner] += rentalFee;\n        // setlastWithdrawTime();\n        \n        owner.transfer(rentalFee * 1 ether); // convert to wei\n   }\n\n}",
  "sourcePath": "/media/trung/DATA/Kins/Blockchain/Apartment-Rental-System/client/src/smartcontract/contracts/ApartmentContract.sol",
  "compiler": {
    "name": "solc",
    "version": "0.4.21+commit.dfe3193c.Emscripten.clang"
  },
  "schemaVersion": "2.0.0",
  "updatedAt": "2018-04-12T10:25:22.595Z"
}